:020000040000FA
:0402FC00FFFFFFFF02
:020000041C00DE
:1000000050B30110BD01001CC101001CC301001C44
:10001000C501001CC701001CC901001C5A5A5A5ACC
:10002000000000000000000000000000CB01001CE8
:10003000CD01001C00000000CF01001CA31D001C0E
:10004000D301001CD301001CD301001CD301001CF0
:10005000D301001C9114001CD301001CD301001C0F
:10006000D301001CD301001CD301001CD301001CD0
:10007000D301001CD301001CD301001CD301001CC0
:10008000D301001CD301001CD301001CD301001CB0
:10009000D301001CD301001CD301001CD301001CA0
:1000A000D301001CD301001CD301001CD301001C90
:1000B000D301001CD301001CD301001CD301001C80
:1000C000D301001CD301001CD301001CD301001C70
:1000D000D301001CD301001CD301001CD301001C60
:1000E000D301001CD301001CD301001CD301001C50
:1000F00000000000D301001CD301001CD301001C30
:1001000000000000D301001CD301001CD301001C1F
:10011000D301001CDFF80CD007F0A8FE0048004710
:10012000BD1C001C50B30110094A0848111D12687B
:100130000968084B9A4207D1A1F18852113A03D1BC
:10014000016841F4700101607047000088ED00E033
:1001500040EF00E021001110094A0848111D126803
:100160000968084B9A4207D1A1F18852113A03D18C
:10017000016841F4700101607047000088ED00E003
:1001800040EF00E02100111007490848094A0860C3
:1001900007491160B0F1E05F04D10748016841F4FC
:1001A000002101607047000008ED00E00000001C25
:1001B00000D8B80500000010005200400548004774
:1001C000FEE7FEE7FEE7FEE7FEE7FEE7FEE7FEE707
:1001D000FEE7FEE71501001C7046704713B50123CA
:1001E0001A4601A900F058FE1CBD08B500218DF883
:1001F000001001231A46694600F08DFE9DF80000AC
:1002000008BD70B505460C4603E0641C2846FFF7A0
:10021000E5FF21780029F8D170BD10B50446FFF73D
:10022000F0FF2046BDE81040C2A1EAE770B50646DF
:100230000A20B1FBF0F2B2FBF0F300FB121400FB5A
:1002400013256422B1FBF2F1B1FBF0F200FB1210B6
:100250003030C1B23046FFF7C1FF3035E9B2304629
:10026000FFF7BCFF3034E1B23046BDE87040B5E77F
:100270002DE9F04180460A20B1FBF0F2B2FBF0F329
:1002800000FB121400FB13256422B1FBF2F2B2FB57
:10029000F0F300FB13274FF47A72B1FBF2F2B2FBDA
:1002A000F0F300FB132642F21072B1FBF2F1B1FB46
:1002B000F0F200FB12103030C1B24046FFF78EFF63
:1002C0003036F1B24046FFF789FF3037F9B2404689
:1002D000FFF784FF3035E9B24046FFF77FFF303447
:1002E000E1B24046BDE8F04178E72DE9F34F0A223C
:1002F000B1FBF2F0B0FBF2F302FB101481B002FB91
:10030000130000906420B1FBF0F0B0FBF2F302FBAD
:10031000130B4FF47A70B1FBF0F0B0FBF2F302FB79
:10032000130542F21070B1FBF0F3B3FBF2F602FBDF
:100330001636814B0198B1FBF3F3B3FBF2F702FBE6
:10034000173A7E4BB1FBF3F3B3FBF2F702FB17391D
:100350007B4BB1FBF3F3B3FBF2F702FB1738794B9E
:10036000B1FBF3F3B3FBF2F702FB1737764BB1FBAC
:10037000F3F1B1FBF2F302FB13113031C9B2FFF715
:100380002DFF3037F9B20198FFF728FF08F1300848
:1003900008F0FF010198FFF721FF09F1300909F08A
:1003A000FF010198FFF71AFF0AF1300A0AF0FF0176
:1003B0000198FFF713FF3036F1B20198FFF70EFFF7
:1003C0003035E9B20198FFF709FF0BF1300B0BF064
:1003D000FF010198FFF702FF00983030C1B2019889
:1003E000FFF7FCFE0198303403B0E1B2BDE8F04FF6
:1003F000F4E670B50D46064654A1FFF702FF01244E
:10040000A00025FA00F000F00F00092801D93730CC
:1004100000E03030C1B23046FFF7E0FE2000A4F12A
:100420000104E4B2ECD170BD70B50D46064647A19B
:10043000FFF7E7FE0324A00025FA00F000F00F000C
:10044000092801D9373000E03030C1B23046FFF71B
:10045000C5FE2000A4F10104E4B2ECD170BD70B57A
:100460000D46064639A1FFF7CCFE0724A00025FA69
:1004700000F000F00F00092801D9373000E03030DB
:10048000C1B23046FFF7AAFE2000A4F10104E4B295
:10049000ECD170BD0FB400B5ADF5017D83AA6846FF
:1004A000829907F067FD2B4A6946294812689047F0
:1004B0000DF5017D5DF814FB3EB5044601231822BD
:1004C0000A210F2000F074FB0123D0220B210F2002
:1004D00000F06EFB684600F0CEFC02944FF4E13071
:1004E0001B4C00906946204600F01BFC0121204671
:1004F00000F0A9FCAFF2F52116480160AFF2E5214A
:100500004160AFF227318160AFF219118161AFF222
:10051000E701C161AFF2B9010162AFF2EF21C16041
:10052000AFF2B3210161AFF23D214161AFF245313C
:1005300041623EBD0A0D0000A086010040420F004E
:100540008096980000E1F50500CA9A3B30780000DB
:10055000001008400400001070B5FE4841684FF0DC
:1005600000048A07FC4907D54068C043000703D54B
:100570004FF40040086000E00C60F84A506CC04343
:10058000800710D5106CC0070DD0506C536CC0F3B1
:10059000036051F82000C3F3074303F1010300FB9C
:1005A00003F0486200E04C62ED4E0C2036F910304A
:1005B0009B58DD43AD070BD5C3F30365C3F3870336
:1005C00051F825505B1CB5FBF3F341F8203001E0F6
:1005D00041F82040401C1028E8D970BD30B51028E3
:1005E0002BD8CA1F94461E2A29D8DD4BC0EB001217
:1005F00002EB42025A331A44525CF2B1D84CD74A49
:1006000034F910305D1C09D0BCF1090F06D89B5895
:10061000C3F303638B4201D1012030BD34F91110C3
:100620004B1C0CD011440A6822F0706242EA006050
:1006300040F400600860002030BD032030BD02207F
:1006400030BD10B5C74BD0B102282FD0032832D00F
:1006500004285DD005285BD0C04A062832D0C04BA4
:1006600033F910305C1C3BD0B1B3991807280B68E4
:1006700023F001030B603BD008283FD03BE0B54896
:100680000029416806D021F00C014160416841F029
:10069000030105E021F003014160416841F00801D8
:1006A00041600020401C9842FCDB31E00323102213
:1006B00000210C2003E0002310221321012000F070
:1006C00077FA25E0906941B120F0010090610020A7
:1006D000401C9842FCDB1BE004E040F00100F5E721
:1006E000022010BD9818016841F0010101600FE07F
:1006F000D169C907FCD0092804D009E0D06AC00735
:10070000FCD005E0106CC007FCD0106CC00701D015
:10071000002010BDFEE7F0B5904900252C464A6C3C
:1007200001238D4EC2F3036256F822204E6C4243E1
:10073000401E8D4F3E404E648C4EB24201D30FE0BE
:10074000641C5B0003FB02F7B742F9D34A6C42EA30
:1007500000402A0342EA0422104340F0400007E030
:10076000834B9A4207D24A6C42EA004040F0C000F4
:1007700048640020F0BD0420F0BD7E4A77499042D5
:1007800003D28A6922F0040205E07B4A904207D234
:100790008A6942F004028A616F49886100207047CB
:1007A0000520704710B57548FFF7E7FF01210620C7
:1007B000FFF747FF09210620FFF710FF0620FFF78C
:1007C000AAFF01210920FFF73CFF15210920FFF7AF
:1007D00005FFFFF7C1FE002010BD1138684A6949C6
:1007E000142837D2DFE800F03614361612103636E9
:1007F000360E0A3636322E2A26221E1A506800F08D
:100800000100704750680AE050680CE050680EE044
:1008100050681CE05068C0F3002070474868C0F37F
:10082000400070474868C0F3800070474868C0F3D4
:10083000C00070474868C0F3001070474868C0F3B4
:10084000401070474868C0F3801070474868C0F394
:10085000C0107047002070472DE9F0414A4E3F4DCF
:1008600000EB80075FEA010806EB470413D016F897
:1008700017003B4E2D2807D036F910104959C907EB
:1008800002D00121FFF7DDFE6088C8B3284441682B
:10089000C90736D03EE0608860B128444168C90786
:1008A00008D0016821F00101016060882844406897
:1008B000C107FDD116F817002D2807D0FFF78DFFCF
:1008C00020B916F817000021FFF7BBFEE08860B1E1
:1008D00028444168C90708D0016821F0010101607E
:1008E000E08828444068C107FDD120792D282BD00D
:1008F000FFF773FF40BB20790021FFF7A2FE23E042
:1009000008E0016841F00101016060882844406806
:10091000C107FDD020792D2807D036F9101049598C
:10092000C90702D00121FFF78CFEE08860B128449E
:100930004168C90708D1016841F001010160E08800
:1009400028444068C107FDD0207A002821D04146C4
:100950001CE00000003004402C00001000000540A6
:100960007088001C40420F003DCC00FF005F4C0926
:1009700000D01213C0E1E40040787D01001BB700F5
:100980000010054000200540C88B001CBDE8F04168
:1009900062E7BDE8F08110B55C4C00EB800304EB2E
:1009A00043025B4892F804C0A4F55671BCF12D0FC8
:1009B00008D031F91C100B58C3F30361DB0708D1D1
:1009C000D2880BE014F8133031F913100958CB0713
:1009D00001D0002010BD5288C1F303611AB1104448
:1009E0004068C007F6D04B4850F8210010BDA0F178
:1009F0000C02042A10D8484A32F91000421C0BD0CD
:100A0000434A491E1044C9B2026822F47F7242EA86
:100A10008101016000207047022070473C48016A54
:100A200041F0010101623D4981623D4941623D4918
:100A30000162002070473B4935481B3901633A4940
:100A400041633A4981633A490163C16AC907FCD0ED
:100A500000207047F0B540F2FF132D4D43EA0064CB
:100A600044F400046C616C692402FCD4002442F25A
:100A70001077641CBC42FCDB6C69C4F34D2656B194
:100A8000B6F5007F0AD36869C0F30800A0F2FF1032
:100A9000C0F1000316E04FF0FF30F0BDA3F10103F9
:100AA00043EA006444F400046C616C692402FCD4E1
:100AB0000024641CBC42FCDB6C69C4F34D24B442CA
:100AC000ECD05B1C0E6000201360F0BD3FB58C467F
:100AD00014461D46102802D8BCF1100F02D904207C
:100AE00004B030BD02AA6946FFF7B4FF03AA01A90A
:100AF0006046FFF7AFFF0399009848432060DDE9A7
:100B00000110484328600020EAE70000C88B001C61
:100B1000000005402C0000107088001C622020009E
:100B2000FA7F16041C000006D3343E020EF00300C8
:100B3000106000061D4B002A03EB8000026801D004
:100B40000A4300E08A4302607047184A02EB8000C3
:100B5000C0F800127047154A02EB8000C0F88012FE
:100B60007047124901EB8000D0F800017047E1E7BF
:100B70000E4A02EB8000C0F8001270470B4A02EBED
:100B80008000C0F880127047084901EB8000D0F85F
:100B900000017047054B002A03EB800050F8802FBE
:100BA00001D00A4300E08A430260704700600F40B2
:100BB00010B5034CC00100EB81001A44225010BD57
:100BC000006008402DE9F04F8DB0044600200B90E6
:100BD000F948FA4EFA4F8B4615469146844205D1A4
:100BE0006DB92020FFF7D7FE814608E0F548844222
:100BF00005D15DB92120FFF7CEFE814606E0B44263
:100C000004D10DB1A94609E0222004E0BC4205D17F
:100C1000002DF7D12320FFF7BEFE81464FF0FF30B5
:100C2000029000200790824603900126069000253E
:100C300029E0002003074FEA09778446A7FB06084E
:100C400043EA191303FB068307FB0C31721902FBFD
:100C50000BF2002306F0C6FE0F4601460346B0F134
:100C6000004F01D959427F1C7A1EB2F5803F09D24C
:100C70000298814206D2CDE902160020CDE9060590
:100C8000BA4639B16D1CB542D3D3029810B1761C67
:100C90000F2ECCD906985AEA000002D10DB0BDE85B
:100CA000F08F03994FEA191000FB01F608460799E7
:100CB00000230144A1FB0A2503FB0A53069801FB0C
:100CC00000333046002106F08DFE834502D9ABEBA0
:100CD000000001E0A0EB0B0064214843B0FBFBF0F7
:100CE000032801D30B98D9E7B648E06840F08000AC
:100CF000E0600698010641EA1A20C0B260600AF07E
:100D0000FF002060E06800F07F00E0600398079932
:100D1000000701F00F0141EA1060A06201200B9072
:100D2000BCE72DE9F0470446A348DFF890A2DFF8BE
:100D300090920027A34E0D464FF00708844204D13D
:100D400021210620FFF74AFC06E0B44204D122210B
:100D50000920FFF743FC06E0544504D12321062077
:100D6000FFF73CFC06E04C4504D124210620FFF7A8
:100D700035FC19E0B44217D1C4F80880A76000E040
:100D800020686069C007FBD180202063606980060D
:100D9000FCD527636760E76027622761E7646765C2
:100DA0002765A06960691AE0C4F80880A76000E0C0
:100DB00020686069C007FBD10120E065606980069A
:100DC000FCD5E7656760E76027622764A764A765CD
:100DD000E7646765276560694C4500D16762204616
:100DE000AA682968FFF7EEFEE068697900F0C000A4
:100DF00029B1012910D0022911D040F0030029792E
:100E0000C1B140F00800012914D002290AD00329F9
:100E10000BD004290ED10BE040F00100EFE740F0C9
:100E20000200ECE740F0100004E040F0200001E098
:100E300040F03000A979012901D140F00400C0B28E
:100E4000E060BDE8F0875F4A012905D000219042AB
:100E50000CD1026B01637047904203D1016B41F0EA
:100E60008001F7E7C16D41F0010100E0C26DC1658D
:100E700070470021E7E74FF41651016003214171EB
:100E8000002101718171816070474E4A0160704795
:100E90004C490068C0B27047F0B5012B06460D46BC
:100EA00014464FF0000332D15F1E1AE0384602E0CC
:100EB00060B3A0F1010071698906F9D530B34FF034
:100EC000100C0BE015F8011B3046FFF7DEFFBCF1FC
:100ED000010CA4F1010403F1010302D0002CF1D1B3
:100EE00017E0002CE2D114E07069800611D51027BC
:100EF0000AE000BF15F8011B3046FFF7C6FF641E6D
:100F00007F1E03F1010302D0002CF3D101E0002C7D
:100F1000EAD11846F0BD70B5012B05460C464FF0DE
:100F200000031DD15E1E0EE0304601E0D0B1401E30
:100F30006969C907FAD0A8B12846FFF7A9FF521E70
:100F400004F8010B5B1C002AEED10BE06869C007B6
:100F500008D02846FFF79CFF5B1C04F8010B521ECB
:100F6000002AF3D1184670BD1649C16841F040010E
:100F7000C160704710B50023072914D2DFE801F0E3
:100F80000406080A0C0E110001230CE002230AE0FB
:100F9000042308E0082306E0802304E04FF4807374
:100FA00001E04FF400730749012A0DD088424168DF
:100FB0000DD140F28F320CE00010084000100C40C0
:100FC00000200C40002008404168194303E040F233
:100FD00007329A431140416010BD8A49884201D1CD
:100FE000486900E04069C0B270474069400601D5D9
:100FF0000020704701207047CB78012223B1012BDC
:1010000006D0022B06D0C1224B78012B04D005E07C
:101010004122F9E78122F7E742F004020B78012B25
:1010200001D142F002028978012901D142F008027F
:1010300002F0CF018160704700218170C1700121F1
:1010400001704170704730B50023012A08D10C7837
:10105000012C00D102234978012901D143F0040376
:10106000684D10240021012A01D0016230BDC26800
:1010700042F08002C26001604160C16821F08001DD
:10108000C160846243F00101EFE7012906D0002925
:1010900003D1416A01F03D0141627047416A41F06C
:1010A0000201F9E70129416A03D001F03E014162E2
:1010B000704741F00101FAE7CA00416A21F03801A6
:1010C000114301F03F0141F00401416270470023E8
:1010D00011B1012903D101E0012300E002230169DC
:1010E000012A04D0F3229A43114001617047194349
:1010F000FBE7002321B1012904D0022905D103E037
:10110000102302E0402300E080230169012A04D07B
:10111000F3229A431140016170471943FBE780694C
:10112000C0B2704710B5CC780022364B012C0BD1E1
:101130004C791022012C00D130220C79012C01D1E4
:1011400042F00802CC7944650C78012C01D142F0C0
:1011500001028C78012C03D18C7942F004020465E1
:10116000497809B942F0020202F03F01C164C16846
:1011700041F03801C16010BD0129224AC16C03D081
:1011800041F00201C164704721F00201FAE730B575
:1011900004461C48844216D16BB1E068C5B225F004
:1011A0001000E06001232046FFF776FE61694906E2
:1011B000FCD5E56030BD01232046FFF76DFE616977
:1011C0004906FCD530BD63B1E068C5B225F010001A
:1011D000E06001232046FFF75FFE61694906FCD508
:1011E000E7E701232046FFF757FE61694906FCD572
:1011F00030BD03B501231A4601A9FFF7C8FF0CBD96
:101200000023C4E70020084000F0D1BD40F61202E0
:1012100042EA8012F74802614161016941F001012F
:101220000161704770B5FA25FFF7F0FFF14E3069A4
:1012300010F0010407D06D1E012000F0BBFD002D51
:10124000F5D104B1EC1E204670BDEA48006900F0FB
:1012500001007047E748406970474FF4016141EA77
:101260008011E4480161016941F0010101617047A9
:101270002DE9F0410E46FA25FFF7EFFFDD4F386903
:1012800010F001040AD06D1E012000F093FD002D26
:10129000F5D104B1EC1E2046BDE8F08178693060DC
:1012A000F9E710B5D0F8B82500EB8203C3F8601554
:1012B0004B89C3F30B0343F4804400EB4213C3F8A0
:1012C0008842132A05D1D0F8E84444F40044C0F819
:1012D000E8444968C3F88C124FF00041C3F8841207
:1012E000D0F8B0354FF4B6615B1E521C0B50142A77
:1012F00000D30022C0F8B82510BD2DE9F04100262A
:101300004FF4C067C46910E000223946032001F0A1
:101310006EFF05000DD002F0B0F8012800D9FEE7FD
:1013200029462046FFF7BDFF761CD4F8B0050028FB
:10133000EAD13046B0E770B5054600F09FF90400E9
:1013400015D06068808900F041FDB0F5006F03D0D2
:10135000A0F50060063805D12A6929462046904745
:10136000002804D02046BDE8704001F009BF70BDE0
:1013700070B5C46904F25456D4F85C5515E0416860
:10138000132D1ED04FF48011C0F8041004EB85001B
:10139000D0F8040508B101F0F3FED4F85405401C60
:1013A00030606D1C142D00DB0025D4F85405142882
:1013B00004D204EB451041680029E0DAC4F85C551A
:1013C00070BD4FF44010C4F86402DFE7C069D0F884
:1013D000540570472DE9F0470446C6698A46884699
:1013E000084602F04AF8054602E0012000F0E2FC5F
:1013F000E069D0F85405A842F7D3D6F85845A1467D
:101400002DE006EB4417D8F804006D1EF860B8F81C
:101410000A00C0F30B00B860D6F8542540F25450CF
:10142000521E825178684C4506D140F08050786059
:10143000404602F02BF802E040F000407860F5B141
:1014400006EB84020020C2F80405786840F44000EE
:101450007860641C142C00D30024D8F80080002D80
:10146000CFD106EB4910C6F85845416841F000411C
:1014700041606149012048600020BDE8F08706EB2B
:101480008400C0F804A5786840F0C0407860DCE7CC
:101490005A482021016070472DE9F0470446C6698B
:1014A0000A210920FFF79AF819210320FFF796F87F
:1014B00018210220FFF792F8514F4FF48000C7F82F
:1014C00000010A256FF0020804E0012000F072FC20
:1014D0006D1E34D0D7F850014002F6D5464F38681B
:1014E00040F001003860032504E0012000F062FCB8
:1014F0006D1E24D03868C007F7D14248386094F890
:101500002B00E16ADFF8EC9040EA0121C9F84410B1
:10151000B4F82F10C9F840103B49C9F800103B49F6
:10152000C9F804100021204600F05DFA0028A4D17B
:10153000304600F0F8F820B16FF001009DE740461A
:101540009BE74FF000083446C6F8B4851420C6F86F
:10155000B885C6F8B005410106F52170054606F0CC
:101560008BFA00204FF4804304EB4011C1F888321D
:1015700001F52972C1F89022401C1428F4DB4FF4C5
:101580004040C4F8E804C4F8F054FD602068FFF758
:10159000B4FE4FF48010B861B86940F00800B8613B
:1015A0001B487861C7F81C80B86942F20201084301
:1015B000B861D9F8001041F00C01C9F80010012001
:1015C000B860002059E70B490028086802D040F4B1
:1015D000006001E020F400600860704705490028C1
:1015E000086802D040F4804001E020F480400860A8
:1015F00070470000000001400010014080E100E061
:10160000003005408001020000EC0600010000806F
:10161000FFE7010090F83130DB0601D506F09AB8FB
:101620006FF00C00E4E770B5040026D0554D04F1CE
:101630002B002C6000F063F9062084F82A0040F2A9
:10164000DC502085632084F831002046E561FFF7F7
:1016500023FF002810D104F114044BA020614FF0A7
:101660006500A0774FF06E00E077AFF25700206082
:10167000474860604FF0000070BDFEE72DE9F04183
:101680000346C069002100F5B666D0F8B025142ADB
:1016900009D0D0F8B42500EB4214D4F88452002DC0
:1016A00005DA0020F8E51846FFF727FEF9E700EB1A
:1016B0008205D4F88442D5F86055270417D5354FF4
:1016C0003C4208D104F48157B7F5805F03D04FF452
:1016D0008177A74300D101214FF48247A74305D06A
:1016E000670404D52C4F3F683F0500D40121D0F892
:1016F000B0757F1C3760521C142A00D30022C0F83A
:10170000B42521B12946FFF7CCFD002506E0184697
:10171000FFF7F3FDC4F30D40288168811F490120C4
:1017200088602846B8E530B5044685B04FF420708F
:10173000049004F11400251D0FC88DE80F0095E8F2
:101740000F0006F099F91420C4F854050020C4F8DD
:1017500058054FF45002C4F85C0500BF04EB40117B
:101760004A6001F124030B61401C1428F6DB4FF49E
:101770007000C4F86402C4F870520848056105B0EE
:10178000002030BD080100106C7769706C70630038
:10179000D513001C5A2800400000014000100140F1
:1017A00008B1012200E0002220210720FFF7C2B982
:1017B00010B50423182205210E20FFF7F9F90423A0
:1017C000182206210E20FFF7F3F90423182208211E
:1017D0000E20FFF7EDF9012220210720FFF7AAF9DB
:1017E00020210720FFF7B7F9002240210720FFF74B
:1017F000A1F94FF48074002221460720FFF79AF9DF
:1018000040210720FFF7A7F921460720FFF7A3F99A
:101810004148016821F0070101604FF000034FF0DB
:1018200050024FF013014FF00100FFF7C1F90623FA
:10183000102201210020FFF7BBF9032310221221FF
:101840000120FFF7B5F90323102214210120FFF72F
:10185000AFF90323502211210120FFF7A9F9032337
:10186000102201210C20FFF7A3F907235022102199
:101870000120FFF79DF9032350220F210120FFF7DC
:1018800097F90021022350220846FFF791F905231A
:10189000102204210920FFF78BF905231022194695
:1018A0000920FFF785F90323502200210C20FFF7C0
:1018B0007FF90523502200210920FFF779F905233C
:1018C000502201210920FFF773F905235022062138
:1018D0000920FFF76DF90523502203210920FFF7A6
:1018E00067F90523502202210920FFF761F904233B
:1018F00050220821BDE810400C20FFF759B9002103
:10190000017060214170372181701221C170342132
:1019100001715621417170472C3104402DE9F0418D
:10192000604E054600243068CA0702D040F004002B
:1019300001E020F0040030604807306802D540F034
:10194000020001E020F0020030608807306802D514
:1019500020F0010001E040F00100524F30603F1DD7
:10196000C0F300013A68C2F3000291420AD0012498
:10197000C00700D00120FFF731FE3068396860F3FE
:10198000000139603A68C0F34001C2F3400291425D
:101990000ED00124800701D5012000E00020FFF7D0
:1019A00012FE3068C0F34001386861F341003860CE
:1019B00030683A68C0F38001C2F3800291420FD0D0
:1019C00001244007284602D501F0AEFB01E001F0FA
:1019D000C7FB3068C0F38001386861F3820038606B
:1019E0002046BDE8F081F8B52E4A0D46121D131FA2
:1019F000106820F00101186861F3000021F0020175
:101A0000C1F3400421F00401116064F34100C1F30B
:101A1000800161F382001860111F002088604FF47C
:101A20000041FFF7FFFB6FF00206F0B94FF4C874F6
:101A3000012000F0BFF969460020FFF719FCA0B9AA
:101A4000009810F4084F03D0641E002CF0DC64B141
:101A50004FF4445100200091FFF7E4FB1DB1202119
:101A60001720FFF7DFFB0020F8BD3046F8BD70B54A
:101A70000C4E05460024B068012804D01020FFF762
:101A8000ECFB01200AE0FFF7E0FB40B9FFF7E2FBC7
:101A900001462846FFF742FF04460020B06020467A
:101AA00070BD00007000001070B50C4605460021A6
:101AB00002F041FC0021284602F042FC00212846A9
:101AC00002F03BFC0021284602F03DFC00221146BA
:101AD000284602F03DFC14B1204601F0F8F82846F3
:101AE000BDE8704002F077B92DE9F04106460C469A
:101AF00019E001233046696803F0AEFD20B1401CB7
:101B000000D1A560BDE8F0816F892868A06008B1A8
:101B100001F0BCFC284601F033FB0028FAD039461E
:101B2000304602F085F9A568002DEBD06A89B6F839
:101B30006E008242DDD9E5E770B50D46002104460E
:101B40004170806848B1AFF20F01284602F0F8FBFF
:101B500021462846FFF7C8FF06E02078032803D176
:101B600021462846FFF7A0FF002070BD70B50D4646
:101B7000040014D0A06848B1AFF24301284602F037
:101B8000DFFB21462846FFF7AFFF06E02078032859
:101B900003D121462846FFF787FF002070BD084685
:101BA00002F02BFA6FF0090070BD002801D001F09F
:101BB0008EB870472DE9F041884615461E4648B15B
:101BC000044645B10027D6B18760104601F0D8FA27
:101BD000304697E7FEE703202070A06820B9214631
:101BE0004046FFF761FF08E0AFF2B301404602F064
:101BF000A7FB21464046FFF777FF002082E72078C9
:101C000001280AD002280BD02989404602F010F999
:101C10002846A76001F0B4FAEFE70220207005E043
:101C2000A06818B1114601F04DFCE6E7A260DBE7C1
:101C300010B50C460121204602F0F0FA0C2001F00C
:101C4000BAF801001AD00120087000204C604870DA
:101C50008860204602F06FFBAFF2A701204602F039
:101C60006CFBAFF2B901204602F06DFB0022AFF22F
:101C70000311204602F06CFB002010BD4FF0FF3036
:101C800010BD10B502F055FB0A4C0028206010D0A2
:101C90000722094902F0D1F900280AD1FF21206862
:101CA00002F003FAAFF277012060BDE8104002F0C5
:101CB0004DBB10BD7C000010CC8D001C86B0FEF723
:101CC00063FAFEF76FFDFEF72FFAFEF745FAFFF70E
:101CD0006FFD0020FFF764FD0020FEF7EDFB012003
:101CE00000F03AF800F0D2FF002005900390174A68
:101CF000174904908DE8070005AB04AA03A915480D
:101D000001F08FF9134801F0B3F9124801F0FCF922
:101D1000104800F01BFEFFF7B4FF0E4C0D48FFF714
:101D20000AFB0C48FFF724FB04F01FFA0948FFF7F1
:101D30009EFE0028F2D094F83100C00601D50120A3
:101D400000E00020FFF72CFDE8E700002778001CEA
:101D50002716001CC406001010B50446194804607C
:101D60001120FEF718FE4FF47A71B1FBF4F1B0FBCD
:101D7000F1F0B0F1807F0CD220F07F414FF0E020F5
:101D8000491E4161104AF021117000218161072133
:101D9000016110BD4FF0E020016921F001010161F6
:101DA000704708484168026811444160704705481F
:101DB0004068704703494A6810444A689042FCD81A
:101DC000704700008000001023ED00E040BA70472B
:101DD00040BA704700BA704700BA704728B14269EC
:101DE00022B1018B442902D3FEE7FEE7FEE70A4455
:101DF000491CFF23018382F8F030002208E04429C7
:101E000000D3FEE743690B44491C018383F8F020AB
:101E1000018B4429F3D38B07F1D1704710B5038BA5
:101E2000941C1C44442C00D9FEE744691C445B1CF0
:101E3000038384F8F010018B43690B44491C018330
:101E400083F8F02010BD10B5028B931C442B00D9F1
:101E5000FEE744690B0A1444521C028384F8F030F4
:101E6000028B43691344521C028383F8F01010BDA7
:101E70002DE9F04105000C46164603D01CB120693F
:101E800010B1FEE7FEE7FEE7606900B1FEE7002261
:101E90004FF49A773946104601F0A9F9206118B13C
:101EA0004189B94204D2FEE74FF0FF30BDE8F0812E
:101EB000627BFE4912B90A68521C0A6009682160F7
:101EC00040680121606101706069002741706169AB
:101ED00095F82A0088706069C7702068FFF77AFF5C
:101EE0006169082E4860606907816069478160699F
:101EF000C76008D0042E06D0032E07D1207B05280A
:101F000001D0042802D161696868C860606907610E
:101F100060694761606987615FF0000095F82A1089
:101F2000814203D9291891F82B1000E0002100F11B
:101F30001C036269401C80B2D1541028EED30020EB
:101F400000F12C016269401C80B257544028F7D33D
:101F50005FF0000000F16C016269401C80B25754D0
:101F60008028F7D36169D248C1F8EC0027830020AC
:101F7000626900F1F0015054401C80B24428F7D34C
:101F8000012235212046FFF749FF3146204600F067
:101F9000BAFD00208AE7F8B5046A054600206062B1
:101FA0000621204600F0BAFD012221462846FFF70F
:101FB0005FFF060030D1022239212046FFF72EFFB5
:101FC000298D2046FFF73FFF042237212046FFF7E7
:101FD00025FF0121204600F096FD0321204600F058
:101FE00092FD1C21204600F08EFD0621204600F0C7
:101FF0008AFD2046FFF7F2FE208BF03081B2206987
:1020000001F0C9F900954323AA4A2169606804F0E8
:10201000AFFA204600F067FD607B401CC0B26073E1
:10202000062802D20121814000E03C214FF47A7061
:10203000414388B200F2F3104FF4FA71B0FBF1F0B3
:1020400060833046F8BD70B5046A05460821204615
:1020500000F064FD002204F12401284605F00CFB89
:10206000607B401C60730120608370BD10B5028BE3
:10207000131D442B00D9FEE744690B0E1444521C77
:10208000028384F8F030028B44690B0C1444521C18
:10209000028384F8F030028B44690B0A1444521C0A
:1020A000028384F8F030028B43691344521C02838C
:1020B00083F8F01010BDF8B5046A064601212046E9
:1020C00000F02CFD032221463046FFF7D1FE070029
:1020D0005FD1022239212046FFF7A0FE318D204634
:1020E000FFF7B1FE042232212046FFF797FE606A17
:1020F000FFF772FE01462046FFF7B8FF04223621A3
:102100002046FFF78BFE206AFFF766FE0146204659
:10211000FFF7ACFF042237212046FFF77FFE0121A5
:10212000204600F0F0FC0321204600F0ECFC1C21CE
:10213000204600F0E8FC0621204600F0E4FC756A29
:10214000A5B1284605F0A4FC10F0FF020ED0FF2A2E
:1021500000D3FEE70C212046FFF760FE03E06D1C74
:10216000204600F0D0FC29780029F8D12046FFF75E
:1021700035FE208BF03081B2206901F00CF9009619
:1021800043234C4A2169606804F0F2F9204600F0CC
:10219000AAFC607B401CC0B26073062802D20121F9
:1021A000814000E03C214FF47A70414388B200F254
:1021B000F3104FF4FA71B0FBF1F060833846F8BDCC
:1021C000F8B5046A06460521204600F0A7FC032264
:1021D00021463046FFF74CFE070033D10222392159
:1021E0002046FFF71BFE318D2046FFF72CFE756A57
:1021F000A5B1284605F04CFC10F0FF020ED0FF2AD6
:1022000000D3FEE70C212046FFF708FE03E06D1C1B
:10221000204600F078FC29780029F8D12046FFF705
:10222000DDFD208BF03081B2206901F0B4F800961A
:10223000432304F120022169606804F099F92046E3
:1022400000F051FC607B401CC0B260730A2803D2CE
:102250004FF4FA61484301E044F6206080B200F296
:10226000F3104FF4FA71B0FBF1F060833846F8BD1B
:10227000F8B5046A06460421204600F04FFC03220C
:1022800021463046FFF7F4FD07003AD102223921FA
:102290002046FFF7C3FD318D2046FFF7D4FD756A58
:1022A000E5B1284605F0F4FB06E0000088000010C8
:1022B00063825363D08D001C10F0FF020ED0FF2A02
:1022C00000D3FEE70C212046FFF7A8FD03E06D1CBC
:1022D000204600F018FC29780029F8D12046FFF7A5
:1022E0007DFD208BF03081B2206901F054F800961A
:1022F0004323F94A2169606804F03AF9204600F066
:10230000F2FB607B401CC0B260730A2803D24FF41A
:102310007A71484301E042F2107080B200F2F3108B
:102320004FF4FA71B0FBF1F060833846F8BDEB482A
:1023300010B5046825E0216A11B3C88B421ECA8318
:10234000012806D0216A888B421E8A8301280CD07E
:1023500016E0216A2046097B012903D00A2901D011
:1023600005290DD1FFF784FF0AE0216A2046097B89
:10237000012903D00A2901D0052901D1FFF720FF47
:102380002468002CD7D110BDF8B5046A0546032196
:10239000204600F0C3FB032221462846FFF768FDD4
:1023A000060028D1022239212046FFF737FD4FF4DD
:1023B00010712046FFF747FD042232212046FFF727
:1023C0002DFD606AFFF708FD01462046FFF74EFE2F
:1023D0002046FFF703FD208BF03081B2206900F02A
:1023E000DAFF00954323BC4A2169606804F0C0F815
:1023F000204600F078FB607B401CC0B260730A2866
:1024000003D24FF47A71484301E042F2107080B277
:1024100000F2F3104FF4FA71B0FBF1F06083304634
:10242000F8BDF8B5046A06460021204600F076FBA8
:10243000002020626062A062E062A06360632063AB
:10244000072221463046FFF713FD050013D1204631
:10245000FFF7C4FC208BF03081B2206900F09BFFB5
:102460000096432304F120022169606804F080F89B
:10247000204600F038FB607B401CC0B260730A2825
:1024800003D24FF47A71484301E042F2107080B2F7
:1024900000F2F3104FF4FA71B0FBF1F060833046B4
:1024A00000F0E9FD8E49304600F07DFD8C49304654
:1024B00000F071FD8A49304600F071FD2846F8BDF4
:1024C0002DE9FC41050017D02C6AB4B1616B4FF0C7
:1024D0003C064F1C4FF480334FF001024FF6FF7063
:1024E0000DD01E31B1FBF6F1994200D3014609042B
:1024F000090CA18302D002E0FEE7FEE7A283A16BF4
:102500004F1C0AD01E31B1FBF6F1994200D30146AF
:102510000904090CE18300D1E283A17B09B1A06A1F
:1025200009E094F824107F2901D8FF2003E0C02996
:1025300001D36FF07F400090E06A019028B9606A93
:102540000099084040F08070019004F12401284671
:1025500000F029FD6946284600F021FD01A9284622
:1025600000F019FD284600F0CFFD0A21204600F0BA
:10257000D5FABDE8FC8170B55848002504680EE026
:10258000206A58B1418B012903D9A1F1010141838E
:1025900004E003D14583204600F0C8FA2468002CEB
:1025A000EED170BD70B504000D4603D01DB1206A98
:1025B00010B1FEE7FEE7FEE73C21284605F05CFA95
:1025C000256270BD10B5040007D0206A002803D032
:1025D00000F07DFB0020206210BDFEE710B580B149
:1025E00050F8204F417C002C21F0080141740FD09D
:1025F000606818B103F0F4FF00206060A06808B1C3
:10260000FEE7FEE72046BDE81040002100F086BA54
:1026100010BD2DE9FC5F044600200F4601900A2101
:10262000304805F029FA78892C2814D37868A060FE
:10263000B7F808A0F0263C4606E0311AAAEB0000E5
:1026400024688EB21FFA80FA2CB16089B042F4D9A6
:10265000D4F80490CCE06FF00100BDE8FC9F00BF0F
:10266000B01C1FFA80FB6289701C4FF0FF3582425C
:1026700003D909EB0600407803E0206808B1406800
:102680000078342980464CD00BDC032931D003DCA0
:10269000E1B101290DD127E0062931D0332908D134
:1026A0003AE0352942D0362945D03A2948D03B294D
:1026B0004BD04FF000083044801C86B2B8F1000FB8
:1026C00072D0002000900A2D44D3FEE70020761E31
:1026D0008046B6B2EFE70000D08D001C90000010DD
:1026E000CC8D001C24070010042800D0FEE706252E
:1026F000E1E74FF00408042800D2FEE70725DAE7F7
:10270000810700D0FEE7082801D34FF008084045B4
:1027100000D2FEE70825CEE7042800D0FEE7032517
:10272000C9E7012800D0FEE70025C4E7012800D052
:10273000FEE70125BFE7042800D0FEE70225BAE73F
:10274000042800D0FEE70425B5E7042800D0FEE702
:102750000525B0E7FE48405D00B1FEE7B8F1040F83
:1027600001D2424600E004225B466946204600F062
:102770001CFFB8F1040F18D95FEA887000D0FEE79B
:10278000F349012048550098FFF724FBF049A8F1D0
:10279000040828390BF1040B41F8250008F0FF0864
:1027A0001FFA8BFB6D1C8EE715E0B8F1040F03D008
:1027B000B8F1010F04D0FEE70098FFF70DFB01E030
:1027C0009DF80000E249009001204855E04800993A
:1027D000283840F825106089B04208D82468311A9A
:1027E000AAEB0000D4F804908EB21FFA80FA34B13C
:1027F00019F80610FF2902D05645FFF431AFD4492D
:10280000087850B1A1F12800002200680A70012860
:102810000FD0022805D0032809D0019800283FF4E2
:102820001CAF00202C264FF06C0A019003E701201A
:1028300001906C264FF0EC0AFDE62DE9F041046AA8
:1028400005465168A068174600B1FEE778894FF049
:1028500000082C2873D30878022870D1002095F83E
:102860002A2008E02B180E1893F82B30367FB3423D
:1028700065D1401CC0B28242F4D84868FFF7ACFA78
:10288000216888425BD139462046FFF7C2FE08BB6B
:10289000AF494878F0B1A1F128025068C0B20528CC
:1028A00004D0062817D0022836D048E0207B012823
:1028B00006D003280BD0042809D0052807D03EE015
:1028C000284600F07EF92846FFF7BDFB37E0284692
:1028D000FFF7F6FD33E0207B032805D0012803D065
:1028E000042801D005282AD128462E6A00F0C3FB0F
:1028F0009849284600F057FB9649284600F04BFBC4
:102900009449284600F04BFB0C21304600F006F9B4
:102910002846FFF740FB12E0207B06280FD1A4F8E1
:102920001A802E462D6A887848B19068FFF752FACF
:102930002862A868006968623046FFF7BCFB384629
:10294000C4F80880BDE8F04100F01ABC70B505007D
:102950000BD095F831002C6A20F0080085F8310082
:10296000800603D46FF00D0070BDFEE7288D4FF098
:10297000FF36B0F5107F33D334B1606808B103F08F
:102980002FFE206938B1FEE73C2000F014FA040065
:1029900026D02C6202E0A06800B1FEE73C21204670
:1029A00005F06AF803F036FE6060C8B1017A44228F
:1029B00041F0200101726749606803F0D6FC4322B0
:1029C0006449606803F0DEFD2A466349606803F0ED
:1029D00004FE2846FFF7DFFA20B12846FFF7FEFD88
:1029E000304670BD15F8311F41F00801297070BDE7
:1029F00030B591B005000CD03C2101A805F03CF8A1
:102A0000082101A800F08AF8286A18B144687CB946
:102A100000E0FEE703F0FEFD040031D00294207ACE
:102A2000442240F0200020724A49029803F09DFCA5
:102A3000082201A92846FFF71BFAE0B90222392132
:102A400001A8FFF7EBF9298D01A8FFF7FCF901A810
:102A5000FFF7C4F9BDF81C00F03081B2059800F012
:102A60009AFC009543233D4A2046059903F080FDDA
:102A700001A800F038F80298002801D003F0B0FD5A
:102A800011B030BD70B5046A0546002C1BD0207B08
:102A9000002604280FD004DC002814D0032804D119
:102AA00009E0052807D00A2805D066732846BDE846
:102AB0007040FFF770BA284600F0DDFA66732846CA
:102AC000BDE8704060E470BD58B1026A002A09D0C8
:102AD000137B082B06D10968526A914202D100F09B
:102AE0009CB8FEE7704710B5040009D0206940B1DA
:102AF000616939B100F044FB00202061606110BDC4
:102B0000FEE7FEE7FEE7028B442A00D3FEE74369B7
:102B10001344521C028383F8F0107047027B8A42F0
:102B200003D00173002141734183704710B5016ADE
:102B30000446087B0C2826D0062824D0012817D06C
:102B4000082825D005282ED0042831D0032807E0F6
:102B500024070010CC8D001C3B28001CD08D001CCD
:102B60002ED1487B02280ED22046BDE810400BE44F
:102B7000487B052804D82046BDE81040FFF79BBAE3
:102B80002046FFF74EFC2046BDE81040FFF703BA91
:102B9000487B0128204603D8BDE81040FFF753BA10
:102BA000BDE810408CE42046BDE81040FFF708BBAC
:102BB000487B0828E4D82046BDE81040FFF758BB02
:102BC00010BD70B5046A00202E4DA062E062E97865
:102BD000A5F1280609B1F1682163297909B13169A4
:102BE00001E0216B49086163697909B1716900E00D
:102BF000216BA163A16809696162A97921B1B069FA
:102C0000FFF7E8F8A0620120A073E879002803D05C
:102C1000F069FFF7DFF8E06270BDF8B5046A0546B9
:102C20000C212046FFF77AFF042221462846FFF7B1
:102C30001FF906001ED1042232212046FFF7EEF8CC
:102C4000606AFFF7C9F801462046FFF70FFA2046F1
:102C5000FFF7C4F8208BF03081B2206900F09BFBB5
:102C600000954323084A2169606803F081FC2046EF
:102C7000FFF739FF607B401C60731420608330468F
:102C8000F8BD000024070010D08D001C10B500F026
:102C900009F800F035F900F07DF9BDE8104003F0C7
:102CA00024BA000010B59448944A20F00300002193
:102CB0004FF480331060C0E90031017200F58031BB
:102CC000012451600C720B604B60906010BD0028B5
:102CD00016D0810700D0FEE788490A68904202D3E7
:102CE0004A68904200D3FEE70C38027A3AB10022DB
:102CF00002728A68904200D2886000F0C6B8FEE78F
:102D000070472DE9F04FC91C21F003014FF48039C1
:102D10000C2901D20C2104E0494502D90020BDE86C
:102D2000F08F764E3468A04202D37268904200D38E
:102D3000FEE7A0F10C02131B1568A5EB030CACF128
:102D40000C0C614500D9FEE7E9D0B2466B4E254434
:102D50004FF0000BD6F8088036682F7A06F104068B
:102D6000AFB101F118056545D9D85D180C35611969
:102D7000414501D2CAF8081081F808B01468C1E9C9
:102D80000043156009684945C9D08D51C7E719440A
:102D90000C31D5F800C0A84502D16518CAF8085012
:102DA0000C4484F808B0C4E900C3116022684A45A5
:102DB000B5D09151B3E72DE9F043002852D0C01CA3
:102DC00020F003024FF480380C2A01D20C2201E0DB
:102DD00042454CD84948C2F580358146046881682F
:102DE0000B1B42E0E018067A96BB0668F61A0C3E0A
:102DF000964239D305684FF0010CEE1A0C3E02F1F1
:102E00001805AE4210D39E180C36A51900272F7254
:102E10000768C5E90073066080F808C02B68434561
:102E200004D0251D5E5101E080F808C0334B884274
:102E30005B6802D00DE0096821440D7A0DB199421A
:102E4000F9D1C9F80810994203D0097A09B1FEE70F
:102E50000AE081180C31994200D9FEE7810700D0C1
:102E6000FEE70C30BDE8F083E3589D42BAD800205D
:102E7000F8E770B548430546FFF79DFF040002D010
:102E8000294604F0F9FD204670BD70B51B490B685A
:102E9000984200D2FEE74D68A84200D3FEE7027ACE
:102EA00002B1FEE70268B2F5803F00D9FEE7134C9D
:102EB0001A442468241D90420CD0167A56B9AA42AE
:102EC00008D08D68954200D1886015680560126849
:102ED000C51A155142681A4482420BD0157A002D4A
:102EE00008D18D68854200D18A6001681160006850
:102EF000D11A015170BD00000F0008100000081029
:102F0000F0B50020401C80B20A28FBD31F481F4B9D
:102F100020F0030200201E4D07462B3B05F1140450
:102F200043F82070002109E053F82060166043F850
:102F3000202035F81060491C324489B234F8106002
:102F40008E42F1D8401C80B20A28E9D3F0BD014678
:102F50000A2800D3FEE70D4A2B3A52F82100002838
:102F600005D0036842F82130810700D0FEE77047A2
:102F7000002909D08A0700D0FEE7044A2B3A52F80C
:102F800020300B6042F82010704700005B070010F3
:102F90004E8D001C704701B10968C160704701B1D6
:102FA00009688160704770B505460C460868696815
:102FB00088421DD06F48006809E001686A68914244
:102FC00004D1C66801F019F8304600E0C068002856
:102FD000F3D16948006809E007D0016829B16A683F
:102FE000914202D144B121680160C0680028F3D148
:102FF0002CB12068686070BD4FF00001F4E74FF01D
:103000000000F7E770B5064614461D46FFF7CBFFF4
:1030100021463046FFF7C3FF29463046BDE87040E1
:10302000B9E770B50446DDED040A059D9DED060A7D
:10303000C5B100206060A060E06084F831004F4EB0
:103040002062C4ED070A307884F83400401C3070E8
:1030500084ED040A2046FFF7D5FF2046A84710B1AB
:10306000002070BDFEE7706820602046746070BD6F
:1030700042498860704790F83110CA0703D021F0A8
:10308000010180F83110704700B5030019D093F8A2
:103090003100C00702D01846FFF7EDFF37484168FE
:1030A000994210D11968416006E00A689A4209D134
:1030B0001A680A60002904D08168994201D1002170
:1030C000816000BD11460029EFD100BD10B501009F
:1030D00005D088783038C2B22848406811E0002016
:1030E00010BD00BF90F83430934209D10B7890F8AE
:1030F0003240A34204D14B7890F83340A342EFD042
:1031000000680028EED110BD90F83110CA070AD12E
:1031100041F0010180F83110CA0604D5890602D5B4
:10312000011D04F099BA704710B5044690F83100BB
:10313000C10614D440F0100084F83100206A10B1A8
:103140002046FFF79FFC94F83100C10707D08006A6
:1031500005D5211D2046BDE8104004F07DBA10BD04
:1031600090F83110CA0603D521F0100180F8311013
:1031700070470000B0000010AC0000108C00001080
:1031800070B540B1017B39B1012905D0022903D0C6
:10319000032901D0FEE7FEE70024C18931B1A1F186
:1031A00001010904090CC18101D016E0FEE7427B50
:1031B000017B0568920704D5016909B1884708E0D9
:1031C000FEE703290BD001290CD002290AD0FFF712
:1031D0007EFD641CE4B22800DFD1204670BD0146AC
:1031E000092001E001460820FFF7C2FEF1E72DE9C2
:1031F000F05F0E461746002530B1012805D00228A1
:1032000005D0032805D0FEE714251435ADB20E35E0
:10321000ADB24FF0010B4FF0000A9FB3012F7AD0EF
:10322000022F78D0032F00D0FEE70920FFF78FFE92
:1032300004003BD06019133020F003012773C4E968
:1032400000A1880700D0FEE7ED1C25F00300A0F2E6
:10325000EC5040422681B04201DD324600E0024699
:1032600092B2114404F2FC596281494500D9FEE74B
:10327000002800DCFEE7B51AA4F80EB0A04640F224
:10328000EC562AE02CE00920FFF761FE58B10773E5
:1032900080F80DA0C0F800A04FF6FF71C8F800003C
:1032A0008D4204DBFEE72046FFF76AFF46E0A9B245
:1032B0000181B14200D33146418100F110024260E8
:1032C000920700D0FEE7638962681A444A4500D934
:1032D000FEE7A0F80EB06D1A8046002DD3DC26E084
:1032E00005F1130020F00301F01C20F00300084456
:1032F000FFF761FD040021D06019133020F00301B5
:10330000616026816681C4F800A084F80CA088075B
:103310000DD0FEE7FFE70820FFF719FE04000DD0EF
:10332000C4F804A026816681C4F800A02773A4F81D
:103330000EB084F80DA02046BDE8F09F0020FBE70A
:1033400030B505001846DDE9033C4FF0000406D017
:10335000012D05D0022D05D0032D05D0FEE7142444
:103360001434A4B20E34A4B2E51C25F003050D44B8
:10337000654501D2002030BD0025056013B123440E
:10338000436000E045600223437301814181027381
:103390000121C18130BD70B540B1027B032A06D046
:1033A000012A04D01AB1022A01D0FEE7FEE7028901
:1033B0008A422BD98A1A0D4604464FF6FF710AE05D
:1033C000281A85B28A4200DBFEE7208910FA82F0D3
:1033D000208124682CB16089A842F1D3207B08B1F8
:1033E0000CE0FEE76089A84208D06068001B80B24C
:1033F00041192046FFF785FC040008D0658125812E
:10340000206808B1FFF7BCFE0020206070BDFEE719
:1034100048B1002908D009DAC1F1000293B242890B
:103420009A4204D2FEE7FEE7002070478BB2027B8F
:10343000D0F804C032B1032A04D0022A0CD0012AE9
:103440000AD0FEE7ACEB010200F1100342609A42A1
:103450000AD2C0F804C00EE000290CDA42899A4270
:1034600009D3ACEB0102426042890A4442810289DD
:1034700011440181D8E701207047002102E0491C76
:103480000068C9B20028FAD108467047002802D067
:10349000C189491CC181704710B500B129B9FEE747
:1034A00003890C892344038110460268002AF7D15E
:1034B000028943899A4200D0FEE70B891A440281AF
:1034C000016010BD00B58C46FFF7E6FF60465DF871
:1034D00004EBDBE770B504460120256875B120894F
:1034E0006189401A2989884200D0FEE7288100209E
:1034F0002060608920812846FFF742FE2189628989
:10350000914200D0FEE708B1002070BD284670BD92
:103510002DE9F0414FF0000405000F46264604D087
:103520001FB128893989884201D2FEE745B16889EF
:10353000011B7889801B814203DB1FFA80F802E0BF
:10354000FEE71FFA81F878684246811968682044CE
:1035500004F079FA04EB080084B206EB080086B2A6
:103560006889A04200D2FEE702D12D684FF0000426
:103570007889B04200D2FEE702D83F684FF00006DB
:1035800037B178893989884202D1386800B1FEE7BD
:1035900035B168892989884202D1286800B1FEE7DF
:1035A000002FC3D10020BDE8F0812DE9F047894606
:1035B00015464FF0000828B1B9F1000F03D00027DD
:1035C00004461FE0FEE7FEE72BB16089984202D86F
:1035D000181A83B215E06089C01A86B2AE4200D9CB
:1035E0002E4660683246C11809EB070004F02BFA3A
:1035F00008EB06001FFA80F8B81987B2A81B85B23D
:10360000002324680DB1002CDED14046BDE8F087D0
:103610002DE9F047894617461446002640B1B9F116
:10362000000F06D00189B94204D26FF00D00EDE71A
:10363000FEE7FEE7054612E0B5B16889A0464045C1
:1036400000D2804609EB06014246686804F0FBF9A7
:10365000A4EB080084B206EB08002D6886B2002CAB
:10366000EAD1BE4201D0FEE7FEE70020CEE770B50A
:1036700004460846216851B121890022FFF7B7FDB1
:10368000050004D02146FFF743FF10B1FEE72046B6
:1036900070BD2046FFF774FD284670BD70B50C461E
:1036A0001146049D1A4658B159B15DB15AB14389CA
:1036B000A34202D9A6189E4206D96FF00D0070BD34
:1036C000FEE7FEE7FEE7FEE74068204403F05AF914
:1036D000E10700D040BA29880844010C11FA80F0B3
:1036E0002880002070BD02E0891A006889B2002895
:1036F00004D042898A42F7D94068405C7047F0B5EF
:1037000017460E46054602E0301A2D6886B225B1EE
:103710006889B042F8D900240FE04FF6FF70F0BD81
:10372000301981B22846FFF7DEFF395D04F101044C
:10373000884201D0A0B2F0BDA4B29C42F0D30020D8
:10374000F0BDF0B5074600898C461546411B8EB288
:10375000D11888420CD31C4608E02B46624621460D
:103760003846FFF7CCFF30B1204484B2B442F4D9DC
:103770004FF6FF70F0BD2046F0BD70B505460C0059
:103780004FF6FF700CD02178002909D02989064610
:10379000B14205D0204604F07BF9B04201D3304657
:1037A00070BD82B221462846BDE870400023C8E7BC
:1037B0002DE9F05F81464068DFF88CB100268A462B
:1037C00090F809803546DBF8004028E0207C404531
:1037D00022D12CB1206818B15C49096888421BD1FC
:1037E000207A800605D459485146006803F040FA13
:1037F00090B9676987B1564B4A462146A069B847D8
:1038000050B14FF00009012635B1E068E860DBF8FF
:103810000010E160CBF800402546E4680EB9002CAA
:10382000D4D13046BDE8F09F01B1096801600020A5
:10383000704701B10968416000207047C0E9051276
:1038400070472DE9FE430E4604469046142130464B
:10385000FFF7DEFD88B1002211460120FFF7C7FC0B
:10386000050006D0308980B131462846FFF72AFE90
:103870000BE04FF0FF30BDE8FE8335466FF01301DB
:103880003046FFF7C5FD00B1FEE7404603F084F87F
:10389000070010D0207A800615D43946D8F80000E9
:1038A00003F0E6F978B1B54202D02846FFF768FC8C
:1038B0006FF00500DFE7B54202D02846FFF760FC55
:1038C0006FF00300D7E7A4B1206890B12146207CB7
:1038D000627ACDE900200297A37A4246284603F097
:1038E00034F90446B54202D02846FFF749FC204689
:1038F000C1E7391DEBE7021DA3E713490A688242BD
:1039000009D1D2680A6008E0D16819B1814201D1B9
:10391000C168D1600A46002AF6D101460020FFF7AF
:1039200027BB70B505460020FFF711FB040009D046
:103930001C2104F0A1F82574FF20A0720248016840
:10394000E1600460204670BD98000010F80000108F
:10395000F400001010B5040009D0606808B1FFF74A
:103960000FFC2146BDE810400420FFF701BB10BD4D
:1039700010B503E00468FFF7EDFF20460028F9D1F9
:1039800010BD70B50446007C00281CD00A281AD04F
:10399000012818D0D4F88000002518B1FFF7F0FBFB
:1039A000C4F88050E06FFFF7E3FF4FF0FF30E567AA
:1039B000E086606FFFF7DCFFA06FFFF7D9FF656758
:1039C000A567A4F8725070BD2DE9FC47FA4E4FF47C
:1039D000FA7AB068401C0025B0602F4674690AE18D
:1039E000207C48B1012808D00A2807D04FF00008F1
:1039F000C146022803D006E0FEE7FEE7FEE794F8A2
:103A00004A1006291AD094F84A100C2919D094F8B3
:103A1000A020CAB1D4F89C00E849401CC4F89C001E
:103A2000515C884242D3C4F89C70072A02D2521CCF
:103A300084F8A020204602F07DFA37E04FF001081C
:103A400040E04FF0010831E0B4F93620002A01DBF4
:103A5000521CE286A26F4AB3B4F93620B4F948305A
:103A60009A4223DB02280AD0B4F84600B4F9442075
:103A700000EBE200D24A515C8840A4F84800E78697
:103A8000B4F85200B4F85C10884200D308464008ED
:103A9000A4F85400218FB0EB410F02D24800A4F8E3
:103AA0005400A4F85210204602F0AEF9207C0628FB
:103AB00008D1206BB168081A282803D908F1010839
:103AC00008F0FF08207A00072AD5207C042801D0BE
:103AD000072825D1BB49D4F89800226B0144B1FBDB
:103AE000FAF1B3689B1A994206D208F1010808F06E
:103AF000FF084FF0010913E094F8A11042F29F4231
:103B000011FB02F100EBC100B0FBFAF0984207D2C2
:103B1000204602F0E7F994F8A100401C84F8A100C7
:103B2000E26F6AB1206BB168091AB4F9480000EB82
:103B30004000B1EB400F03D31046FFF719FFE767D2
:103B4000207C032802D009280BD00FE0206BB1683D
:103B5000081A28280AD900BF08F1010808F0FF0850
:103B600004E0206BB168081AF028F5D8B8F1000F0E
:103B700029D02046FFF705FF70692DB1844200D19E
:103B8000FEE7E068E86004E0A04200D0FEE7E068FD
:103B90007061D4F894201AB16FF009016069904700
:103BA000B9F1000F09D0E18BA08BCDE90001231DF5
:103BB0002246616AA06D02F0DFF82146E468022027
:103BC000FFF7D6F917E02546E46895F83400401C65
:103BD000C0B285F8340095F8351088420BD385F8CB
:103BE0003470D5F890201AB129466869904710B909
:103BF000284601F0E6FF002C7FF4F2AE0025B46900
:103C000020E0207C0A2800D0FEE7206BB168081A6B
:103C1000F02807D92046FFF7B4FEB06945B18442C9
:103C200003D1FEE72546E4680CE0E068E86004E0C4
:103C3000A04200D0FEE7E068B0612146E4680220BF
:103C4000FFF796F9002CDCD1BDE8FC8770B50C4677
:103C50000168A14202D1C96801600BE0564806E044
:103C6000C968A14203D1C069E168C16002E0C161D5
:103C70000029F5D100252046E560FFF782FE207C73
:103C80000A280FD0012816D094F82000C10709D0C7
:103C900040F0020084F82000204601F092FF207CD2
:103CA000012808D0606F00B1FEE7A06F00B1FEE709
:103CB000E06F00B1FEE7257470BD2DE9FC410446BC
:103CC0000A00217C3C4E4FF0000033D0012931D056
:103CD000D4F8802022B9228DA2F5B053D03B29D050
:103CE00094F82000C00600D4FEE7E18BA08BCDE95C
:103CF0000001231D2246616AA06D02F03DF82046B6
:103D0000FFF73FFE7069A04202D1C068706107E012
:103D1000F06128B1C068A042FAD1F169E068C860DA
:103D20000A202074B069E060B46102F0A5F90020B7
:103D3000BDE8FC810527082946D2DFE801F0041C14
:103D4000252C2C454533A18B002571B1F168A1428A
:103D500002D1C968F16007E0F16129B1C968A142E7
:103D6000FAD1F269E168D160E06021465FF00200BB
:103D7000FFF7FEF82DE01048002521461030FFF730
:103D800065FF21460320F3E70B4800252146143048
:103D9000FFF75CFFE9E7204601F015FC050008D1BC
:103DA000277406E0204601F00EFC050001D1092031
:103DB000207474B155B10CE09C000010778D001C8C
:103DC000AC8D001CB84C0A00002502E0204601F032
:103DD000F8FE2846ACE7017C012905D090F82010B8
:103DE00041F0100180F82010012166E730B5B0F8ED
:103DF00028C0456A018F40F66833C26A05EB0C049F
:103E0000994200D80B4602EB0301611A03D4A0F8D3
:103E10002AC0A01A30BDA91A002901DD002104E042
:103E2000511BB1F5803F00D3FEE74185002030BD36
:103E300010B50446008D4FF6FF72121A8A4200D266
:103E4000FEE7084480B241F2D0612085884200D963
:103E500021852046FFF7CAFF40F2B45188420ADBB1
:103E600094F8200040F0020084F820002046BDE8CD
:103E7000104001F0A6BE10BD10B50846140006D0D3
:103E80002189FFF7D5FF2046FFF77AF900E00BB153
:103E9000002010BDBDE810409DE770B5FB484469A7
:103EA00027E0E568D4F880208AB1D4F888C0BCF156
:103EB000000F04D0002321466069E04704E000239E
:103EC00021461846FFF7D8FFB0B10A3010D07CB1B8
:103ED00094F82000C1070BD040F0020084F82000C5
:103EE000204601F06EFE14F8200F20F00300207031
:103EF0002C46002CD5D170BD0020C4F88000E6E728
:103F000010B5FFF7CAFFE1480178491C0170C807E6
:103F100002D0BDE8104057E510BD70B50446007CE6
:103F20001546012818D069B1D4F8800020B1FFF7F8
:103F300027F90020C4F8800094F8200040F0100019
:103F400084F8200035B1207C032808D0042806D04E
:103F5000072804D0002070BD6FF00C0070BD204613
:103F6000BDE870400021A8E62DE9FF5F0446007C13
:103F70008B46012836D00A2835D0D4F824A0D4F8AE
:103F800058802068039060680290C048A78BE68B39
:103F900021461430D4F81490D4F89450FFF756FE0C
:103FA000A06F08B1FFF7E4FC606F08B1FFF7E0FC19
:103FB000E06F08B1FFF7DCFC21460220FEF7D8FFD6
:103FC0001DB16FF009014846A847BBF1000F07D0AB
:103FD000CDE9007602AB03AA5146404601F0CCFE83
:103FE000BDE8FF9FFEE7A94821461830FFF72EFEE7
:103FF00021460220FEF7BCFFF2E70121B4E7F0B54D
:10400000A34CA24A4FF6FF754FF440475088411C1D
:104010005180A84200D357805388002154F82100D2
:10402000006803E0868B9E42F0D0C0680028F9D17A
:10403000491C0429F2DB98B2F0BD2DE9F041044699
:10404000007C0D46042600B1FEE712B9FFF7D7FF4A
:104050000246DFF83CC200215CF8210000680FE056
:10406000838B93420BD130B1036823B11DB12F680C
:104070000FB1BB4203D16FF00700BDE8F081C0680B
:104080000028EDD1491CB142E6DB15B1286800B12A
:1040900020607E48A283C168E160C46001F0ECFF4B
:1040A0000020EAE76FF00900704770B50546007C14
:1040B00000B1FEE70320FEF74AFF040031D0686933
:1040C0006061A88BA08301202074687C6074287ACA
:1040D00040F002002072A87AA072687A60722868A4
:1040E0002060A88B78B16948C168A94201D1C9682C
:1040F00006E0C16129B1C968A942FAD1E968C0697D
:10410000C1600020E86029460220FEF731FF6148C7
:10411000A0615E4810300168E160046001F0ACFF0E
:10412000204670BD10B50446084602F035FC38B193
:10413000008D28B1283880B2844200D2204604463F
:10414000204610BD5149D1E9010210444860704732
:104150002DE9F0410446007C0E46984600B1FEE78A
:1041600036B130686060E2832CB1206818B108E095
:104170006FF0050081E7201D02F00EFC20B14068C1
:104180002060A58B1DB105E06FF0030075E7FFF718
:1041900036FFA083FFF7D6FF002744F8247F31467F
:1041A0006063401EA062606441F2D060A080E08045
:1041B000A76020874FF40670A082FFF7B3FFA082AC
:1041C0000121E18500EB800040002086C4F8688072
:1041D000A4F124044FF00201204601F084F9060006
:1041E0001AD102202074294875B1C168A14202D1B8
:1041F000C968C16007E0C16129B1C968A142FAD1AB
:10420000C269E168D160E7604169E160446101F041
:1042100033FF204601F0D5FC30462EE7417470474D
:1042200070B505460420FEF792FE040007D0142264
:10423000294603F008FC6068FFF728F9204670BDA6
:104240002DE9F04105460220FEF781FE0F4E0400E5
:104250003CD100221146B468B06906E0036BE31A52
:10426000934201D31A460146C0680028F6D111B125
:104270000846FFF7C2FE0220FEF769FE040025D1C2
:104280004FF07F0E2246B768706914E09C00001062
:10429000BC8D001CA540001C417CA9420AD8714578
:1042A00008D8D0F830C0A7EB0C03A34202D31C46B9
:1042B00002468E46C0680028EED112B11046FFF7C4
:1042C0009CFE0220FEF743FE040030D0A42103F040
:1042D000D3FB657440F66830A4F86E000023A4F8A0
:1042E00070301C344000A081E08104F8133CFF20B2
:1042F00004F8120C4FF40670A0830620A0852385D5
:104300006085C01F60830120E086FFF71BFFA0646B
:10431000E0632063E064B06860612376AFF2A74099
:10432000E0661048E06784F88530A4F11C0420465C
:10433000A3E6402084E741617047C0F888107047C9
:10434000C0F884107047C0F89410704781617047BE
:1043500000F13400C16542707047034951F82000F4
:104360007047000000DD6D00808D001C70B50546B3
:1043700000690C468089FDF72BFDFE4EC00715D065
:104380002046FFF7F5FA002427E08089FDF720FD9D
:10439000C00707D00120FDF719FD01462869828971
:1043A0001143818120462468FFF7D4FAACB120691B
:1043B0002289F368416811442A891A44511AE4D5C4
:1043C0002989CA1821694968521A002A05DDC81AC4
:1043D00081B229816868FEF7DEFF2C6070BD2DE98F
:1043E000F047E44F04464FF000063878C0067DD50C
:1043F0003846B4F85C80616ED4F860C0FA684368EF
:10440000006908EB0109BCEB020508D4944501D111
:104410000D1A04D481420DD1D98941450AD9D989CF
:10442000A4F85C10C4E9182021B194F8A01009B1D7
:1044300084F8A060E26C811A00292DDCA4F86C607D
:10444000798831BBB4F85C30616E1944494520D19C
:10445000B4F9361000291CDB82421AD194F85000BE
:104460000146401C884201D984F8500094F850005D
:10447000032809D9B4F85200218F014489B281423E
:1044800001D9A4F85210BCE002D1204601F0F9FC99
:10449000B7E084F85060B4E04A1E7DD4A26D821A61
:1044A000002A79DC94F82020530707D522F0040273
:1044B00004F8202FA28E6286A4F1200404F13404B3
:1044C000A675628AB4F9103002EBE302A28221875A
:1044D000628F114461872677A06114F8240CA4F13F
:1044E0003404042841D3B4F8520000E0C5E0B4F825
:1044F00054108842218F04D2014489B2814207D8E6
:1045000033E0494391FBF0F1014489B288422CD257
:10451000A4F8521029E02868A0676868FEF7ADFF8C
:10452000B4F87010884200D9FEE7B4F86C0050B1BE
:1045300028698089FDF74CFCC00704D0B4F86C00F2
:10454000401EA4F86C006868FEF797FF34F8701FEF
:10455000081A20802846FFF7FDF934F8700920B1C9
:10456000A06F20B9606FF0B9FEE7A06FD8B1006905
:104570004068FDF731FC0546A06F00698089FDF7B2
:1045800027FC800700D001202844A56F2989084412
:104590003969401A002800E009E0BCDD1DB1E6865B
:1045A00084F834602DE04FF0FF30E086F8E7A4F89F
:1045B0006C6026E0286860676868FEF75EFFB4F804
:1045C0007010884200D9FEE7B4F86C0050B1286939
:1045D0008089FDF7FDFBC00704D0B4F86C00401ED5
:1045E000A4F86C006868FEF748FF34F8701F081ADA
:1045F00020802846FFF7AEF934F8700908B1A06FA3
:10460000F0B3606FB8B100694068FDF7E5FB05469F
:10461000606F00698089FDF7DBFB800700D0012017
:104620002844656F298901443869411A03D4A16D72
:10463000401A0028BEDDE06BF8B1216C3A69891A96
:104640001BD54D490968081AB4F94410A0EBE100E4
:1046500000B201440AB2A4F84420002801DA404222
:1046600000B2B4F94610A0EBA1000844A4F846003B
:1046700000EBE200A4F84800E6637B88002B00E032
:1046800016E07DD0616AFA68DFF8F080A1EB0200E5
:10469000451E40D41344CB1A5B1C002B3BDCD8F8DE
:1046A0000420454642B147F6FF71884205DBFEE72C
:1046B000606F0028A7D1FEE7FEE75189814214DA36
:1046C0001189814200DAFEE7091A8BB203E01381F7
:1046D00056811268401A51898142F8DB404201B28A
:1046E0001046FEF795FE38B1FEE7404201B2104693
:1046F000FEF78EFE00B1FEE7606AFA682989A0EB3A
:104700000202A1EB02012981F86029694860616A0F
:10471000401A09D50EE2501A06D594F8200040F050
:10472000020084F8200005E20846218D4218F9684D
:104730008A1A521C002AEDDC88427DD1D8F810007C
:1047400045468089FDF744FB800701D0012100E048
:1047500000212889A946084480B27880218D8142B1
:104760003FD2D9F810004D468089FDF731FBC007D4
:1047700015D006E0BC000010A400001088A20110B3
:10478000DDE128698089FDF723FB00F03E00FDF79D
:104790001DFB29698A8922F47C5210438881208D6F
:1047A000288128698089FDF713FB800702D52889B5
:1047B000401E288129896868FEF7EDFD28698089F7
:1047C000FDF706FB800700D001202989084480B24C
:1047D0007880218D626A1144FA681044401A00D032
:1047E000FEE7E06F48B3D9F810008089FDF7F0FAD2
:1047F000C00704D107E00168E167FFF7ABF8E06F9D
:104800000028F8D168E0E56F25E09889FDF7E0FA27
:10481000C0071CD0D9F810008089FDF7D9FA8007AD
:1048200015D40120FDF7D2FAD9F810209189084358
:104830009081FDF7CDFA01E0CAE04DE0800701D09C
:10484000012100E00021B9F80800084478802846DA
:104850002D68FFF77FF875B32B6929897A88586826
:104860000844F9681144081ACFD5F86891B2421883
:104870005968521A002A2EDD091AA9F80810D9F829
:104880001000B8468089FDF7A3FA800704D5B9F86F
:104890000810491EA9F80810B9F80810D9F8040042
:1048A000FEF779FDD9F810008089FDF791FA8007AD
:1048B00002D0012101E00EE00021B9F8080008440F
:1048C00080B2A8F80200D8F80C1008442969496899
:1048D000884200D0FEE7E5677888F96801446162A4
:1048E000218D814200D2FEE7081A20852046FFF77D
:1048F0007DFAD9F8041048460A890AB17961466000
:10490000D9F810008089FDF763FAC0074AD078789B
:1049100040F02000787045E0F9608089FDF758FA92
:10492000800700D001202A89616A1144084460622E
:1049300028698089FDF74CFA800700D00120298979
:104940000844218D884200D9FEE728698089FDF757
:104950003FFA800700D0012029890844218D081AD8
:1049600020852046FFF742FA6968088930B17869E6
:1049700010B1FEF791FD00E079616E6028698089D1
:10498000FDF726FAC00708D0787840F0200078704C
:10499000207C042801D1072020742868E06728467D
:1049A000FEF7D8FFE56F25B12869626A4168914238
:1049B000B2D094F82000C10704D020F0010040F0EC
:1049C000020001E040F0010084F82000BDE8F0871B
:1049D000204601F043F8E56F9DB1F868002629698B
:1049E0004968814212D1B8F8080029898842EDD976
:1049F000FA48FFF715FC0028E8D096B33060294646
:104A000025E0F648FFF70CFCE067DFE716B33269F4
:104A10005268A0EB0202521E25D4421A521C002AF0
:104A200021DCEE48FFF7FCFB0400CFD03069318970
:104A300040684218F968521A002A05DD081A81B246
:104A400031817068FEF7A7FC294620463460BDE836
:104A5000F0478BE4421A06D5E048FFF7E1FB002857
:104A6000B4D0E067CBE72A68F2BB411A00295CDDCD
:104A700028698089FDF7ACF9C007A7D1D748FFF7AF
:104A8000CFFB28600028A1D02869416828890A182E
:104A9000F868121A002A05DD401A81B22981686877
:104AA000FEF779FC218D606AFA6808447988114420
:104AB00088428BD2286800698089FDF789F9C00790
:104AC00010D0286800698089FDF782F900F03E0067
:104AD000FDF77CF9014628680069828922F47C523E
:104AE00011438181218D00E01FE0606A0844F9686C
:104AF000401A81B22868018128684068FEF74BFCA3
:104B0000286800698089FDF763F9800700D00120DB
:104B100029680989084480B27880228D616A0A4434
:104B2000F9680844801A9BD0FEE72E4615007FF4F2
:104B300056AF4BE72046BDE8F04700F08FBF606AF4
:104B4000F9680A1A05D4228D1044081A401C00285E
:104B5000EFDD14F8200F40F00200207036E770B54A
:104B60009F4E0546706800F114048089FDF730F906
:104B70000521B1EB103F1DD270688089FDF728F93F
:104B80006FF0040101EB10308004020C002040F2B1
:104B9000B4510DE0235C002B0CD0012B0BD0022B69
:104BA00004EB000309D05B78002B03D0184480B2DB
:104BB0009042EFD370BD401CF9E75E78042EF9D126
:104BC000001D9042F6D85B885BBA8B4200D803B9CF
:104BD0000B462B87EBE72DE9FC5F814E04463078CE
:104BE00041071FD5217C02290AD0626AF068831A26
:104BF0007ED4238D1A44801A002879DC89B103E021
:104C0000A06D3169884273D1707840F008007070EF
:104C100014F8200F20F0010020706FF00A00BDE8AA
:104C2000FC9FFEE780070AD5207C022807D00328D6
:104C300005D000BF14F8200F40F0020020E194F8E6
:104C40002000C00602D46748006820634FF0000AC5
:104C500084F8A1A02046FFF782FF207CDFF888813E
:104C6000801E624F624D4FF0040B4FF00A09082876
:104C70003ED2DFE800F00468CED2F3CEF2F1307815
:104C8000C10635D5800752D5A06F00694068FDF791
:104C9000A3F83269401C904246D1B4F86E00401C23
:104CA000A4F86E00F0680146401C6062E264E062B5
:104CB0007068491EC089A4F85C00216684F810B0B1
:104CC000208F211DFFF72EFA00EB8001208749007D
:104CD000A4F85410B4F85210012900D14000A4F8EF
:104CE0005200B4F87000D0B1401EA4F8700000E08B
:104CF00072E0A06F0168A16791B1A4F836A084F8B2
:104D00004AA000BFFEF726FED4F88C30002B91D0CD
:104D100000222146606998470A302FD08AE7FEE7D3
:104D20004FF0FF31E186EDE73078C006A9D5706815
:104D3000304B314A01884088CDE900017188F06824
:104D40000144306946E03078C10657D5E16C3069DE
:104D5000A0EB0101491E33D4A16D411A00292FDCBB
:104D600084F810B0A36963B10022214660699847B6
:104D700040B10A3002D02046FFF73FF96FF009003A
:104D80004DE7FEE7B4F852502046FFF728FBB4F891
:104D90006C0010B1401EA4F86C00208F012D01D1D1
:104DA0004FEA4000A4F852007078800614D504F150
:104DB0001004207C40F0020020744FF007005FE0F8
:104DC00071680C4B0A884988CDE900127288F16835
:104DD0001144094A00F0D0FFA4E0000088A20110AD
:104DE000BC000010A4000010B4000010B0000010BF
:104DF000B8000010F4000010F8000010800707D57C
:104E0000606AF168401E884202D1204601F012F823
:104E100088E02046FFF7E3FAC6E72046FFF7DFFA0F
:104E200070788006002830784FEAC0602ADA0028BF
:104E30001EDAA06D316988421AD194F8200040F042
:104E4000020084F820002046FEF79BFD3868A0424F
:104E500005D1C06838604DE056E035E01BE02860C1
:104E600088B3C068A042FAD12968E068C86041E010
:104E700004F11004207C40F0020020744FF0080080
:104E800020704FE000284DDAA06D3169884249D189
:104E90000620207446E02046FFF7A1FA70788006CD
:104EA00040D594F8200040F0020084F8200020460D
:104EB000FEF767FD3868A042CBD0286018B1C06803
:104EC000A042FAD1D0E715E02046FFF788FA307803
:104ED000C00627D5A06D3169884223D12046FEF750
:104EE00050FD3868A042B4D0286018B1C068A04214
:104EF000FAD1B9E784F81090D8F80010E160C8F84A
:104F0000004001F0B9F80DE02046FFF768FA30786C
:104F1000C00607D5A06D3169884203D1707840F092
:104F20001000707000207AE67CB5FF4E05463078A0
:104F3000C1060ED57068FD4BFD4A01884088CDE959
:104F400000017188F06801443069401C00F014FFD2
:104F500049E0800747D5687CFFF772F904003AD032
:104F6000F34800682060A88BA083F0480068606068
:104F700072681088E08303202074F0680146401CAA
:104F80006062E062D089A4F85C00A4F85400491E75
:104F9000216668696061A869A061287A00F08C00C8
:104FA0002072E4480168E160046001F065F8204681
:104FB000FFF7D5FD208F211DFFF7B4F820871221C0
:104FC000204600F090FA050008D000212046FEF7A8
:104FD000CBFF28467CBD4FF0FF307CBD2046BDE8AE
:104FE0007C4000F0EEBD00207CBD2DE9FC4705466D
:104FF000CD4E40680C46B0600088FCF7E9FE696859
:10500000C0F3032001EB80007060B0680088FCF7FB
:10501000DFFEC0F30320800041422846FEF7F8F986
:10502000002877D12889142874D3C14F21463868C5
:1050300001F01EFE0028F4D13868C0F303100E28DA
:1050400068D02889009006233A46B849284601F0DE
:10505000D8FB0028E5D170688089FCF7B9FE000B09
:10506000800041422846FEF7D3F90028D9D1706864
:105070000088FCF7ADFE0146706801804088FCF7AF
:10508000A7FE0146706841804068FCF7A5FE014616
:1050900070684160F1608068FCF79EFE01467068B0
:1050A00081603161C089FCF793FE01467068C1815F
:1050B0008089FCF78DFE00F03F0030702989800761
:1050C00000D0012008447080DFF8689297490020E2
:1050D000D9F80020D1F80080144671683B6828E0B8
:1050E000277CC7B10A2F17D0012F16D0E78BB1F854
:1050F00000C067451BD1A78BB1F802C0674516D128
:105100006768474513D127689F4210D1E768A742D7
:1051100004D1FEE7EFE0FEE7FEE7FEE718B1C76067
:10512000E260C9F80040E068A04205D1FEE72046F1
:10513000E468002CD4D100E094BB7F48046816E0FA
:10514000207C0A2800D0FEE7E08B0A8890420DD12F
:10515000A08B4A88904209D16068404506D12068FA
:10516000984203D1204600F0F2F8DCE0E468002C1D
:10517000E6D1DFF8C8910022D9F8000080460BE0A4
:10518000878BB1F802C0674504D107689F4221D0E0
:1051900020B10FB30246C0680028F1D1002C6ED0B8
:1051A000DFF89C910027B046C9F800702A89A9F859
:1051B0000820C9F80450C9F8101077617770D4F846
:1051C0008020FAB1D4F8886086B100232146606956
:1051D000B04710E0002852D02AB1C168D160C0F8B1
:1051E0000C80C9F80000FFF79FFE9CE000232146D9
:1051F0001846FEF741FE30B10A307CD0B8F8020004
:10520000002878D101E0C4F8807045462046C8F8EF
:105210001840FFF7E0FC0A3065D06878010707D531
:10522000D4F8942032B16FF00A016069904701E030
:10523000C00608D521463F48FEF708FD214602205A
:10524000FDF796FE4FE0B4F86C203AB1D4F8843004
:1052500023B12146606998470A3044D06A6952B345
:10526000D4F8800000B1FEE794F82000C00607D50E
:105270001046FDF785FF2046FEF7BFFE33E040E015
:105280002878000703D5507B40F001005073D4F814
:10529000886026B1002321466069B04704E00023FE
:1052A00021461846FEF7E8FD10F10A011BD010B1A7
:1052B0006869C4F880006878800610D5208DA0F554
:1052C000B051D03901D0401C2085D4F8886036B167
:1052D00000231A4621466069B0470A3003D02046B1
:1052E000AF6100F06EFCAF616F61D9F804004C460D
:1052F000002804D000E016E0FDF742FF6760BDE83B
:10530000FC878889FCF764FD40070CD47068074B64
:10531000074A01884088CDE900017188F06801449E
:10532000306900F029FD0DE0BC000010F400001011
:10533000F8000010B0000010B4000010AC00001025
:1053400088A201102846BDE8FC47FDF719BF7CB5CF
:10535000174C2278510728D421469307498814D541
:10536000436AE268D51A15D4058D2B44D31A002B55
:1053700010DC60681144104A03884088CDE90003BE
:105380000C4B206900F0F8FC0FE0D20702D00B4A6A
:105390001268026349B190F8201041F0020180F8D0
:1053A0002010BDE87C4000F00CBC00207CBD00005B
:1053B000BC000010F4000010F8000010A400001061
:1053C0002DE9F041054688180F46143081B2984601
:1053D00000220120FDF70BFF060029D0718907F19B
:1053E0001400814200D2FEE7A88B7468FCF7EEFC43
:1053F0002080E88BFCF7EAFC6080C4F80480686ACF
:10540000FCF7E8FCA060B808000300F5A04080B2FB
:1054100040F01000FCF7DAFCA081688DFCF7D6FCA8
:10542000E081002020826082698D686A0844E86219
:105430003046BDE8F0812DE9F05F80460A9D0F46B9
:1054400091469A46E80700D00420A90701D50C210F
:1054500000E0002146180420FDF779FD04000FD07C
:1054600065734FF0000BC4E900B739896807A1EBF9
:1054700006012181A4F80AB084F80CB004D5FEE737
:105480003846FDF77DFE07E014213846FDF7C0FFE2
:1054900028B12046FEF75EFA0020BDE8F09F606864
:1054A00040682061B8F81C00FCF790FC2169088076
:1054B000B8F81E00FCF78AFC216948805046FCF7CA
:1054C00089FC21694860B008000300F5A04040EA6B
:1054D000090080B2FCF77AFC2169888121692046A5
:1054E000A1F812B0D9E72DE9F843044600250E468D
:1054F00088070BD0B4F870004FF0FF38082806D3A7
:1055000014F8200F40F0800020701AE0FEE7B0078A
:1055100000D50125E80700D00420A90701D50C21FA
:1055200000E000214718B4F86E0050B1002239465F
:105530001046FDF75CFE0100E2D04889B84203D274
:10554000FEE74046BDE8F883009532462046A36E4C
:10555000FFF771FF0100D3D00869800700D0FEE794
:10556000088900B1FEE7606F10B9616704E010467A
:105570000268002AFBD101600020A4F87200B00785
:1055800007D0A06E401CA066B4F86E00401EA4F8C0
:105590006E00F00705D094F8200040F0200084F859
:1055A00020004868FDF769FFB4F870100844000453
:1055B000000CA4F8700003D0A06F08B9606F08B1A8
:1055C0000020BFE7FEE770B5446F05460CB909E05F
:1055D000044620680028FBD120698089FCF7F8FB8D
:1055E000400704D02846BDE8704001217BE7012038
:1055F000FCF7ECFB21698A8910438881002070BD8B
:1056000070B50DF1100E1D46BEE848100C469142D3
:1056100014D2B6070AD493F8206076060ED4BCF1F3
:10562000000F03D05E6F0EB99B6F3BB104F2B75110
:1056300021F00301914200D80A4691B20022FDF701
:10564000D6FD002807D0016801B1FEE74189091B9A
:1056500029800481448170BD2DE9FF4F4FF000097E
:1056600095B00546CDF81C90CDF83C908DF844904F
:10567000CDF85090169817464C46CB464E46CDF87E
:105680003890ADF82890C846ADF83490CDF82C90FD
:1056900068B1297C04290BD0072909D0022907D039
:1056A000032905D06FF00C0019B0BDE8F08FFEE7BC
:1056B000BFB1B5F86E10B94203D3B5F87010082920
:1056C00005D315F8200F40F080002870C2E1A86FC4
:1056D00019B130B9686F20B9FEE708B9686F00B139
:1056E000FEE7B5F870001390686F00287ED004467E
:1056F00000680028FBD1607BC10700D0042180072F
:1057000001D50C2000E00020014420892A8F0144AB
:10571000511A8AB2B5F872108446ADF82810C1B19A
:10572000904500D9FEE7A346B94201D2884600E081
:10573000B846A1EB0801090406EB0803090CA2EB2B
:1057400008029EB2ADF8281092B202D0BE4200D03C
:10575000FEE7BE4255D2002A53D0BCF1000FFBD069
:10576000B81B904200DD10461FFA80FA1898A34635
:10577000C0071DD0012018990095CDE901100AAB92
:1057800051460320FFF73CFF5FEA000978D01698E6
:1057900052468119D9F8040001F0F4F811AB0DAAB2
:1057A000514600F01BFC0B98504480B20B901CE05B
:1057B000012251460320FDF71AFD5FEA0009E5D0FA
:1057C000169851463044009001F0B2F8C14388B2B7
:1057D00011AB0DAA514600F001FC0B9800EB0A0139
:1057E00089B20B910099C9F8041000E00AE006EBB9
:1057F0000A0086B24846FDF740FE1399084480B27D
:10580000139098E0B5F8720000286ED0FEE7B81B40
:1058100083B22A8F0E989A46101A81B28B4200D911
:105820008A4600211898ADF814108DF84010C00772
:1058300027D0079898B1002018990095CDE901105C
:105840000E980AAB504481B20020FFF7D9FE5FEA00
:10585000000B15D0BBF80A00504502D2FEE701202C
:10586000EAE71698DBF8042081190E981044524696
:1058700001F088F810AB05AA514600F0AFFB24E018
:1058800030E0BDF8280000B1FEE7012251460020BB
:10589000FDF7ADFC0090002824D0169A514602EB8B
:1058A000060B584601F044F8C243ADF814200098A6
:1058B0000022C0F804B010460E99FDF798FC5FEA8C
:1058C000000B10D00099FDF7E7FD5846FDF7D5FD18
:1058D000139A104480B21390082807D94FEA0B009E
:1058E000FDF74EFC9FE00098FAE724E01498009042
:1058F000A86E0022831959462846FFF79CFD5FEAEF
:10590000000B76D0BDF81400ABF80A009DF84000FB
:105910008BF80C009BF80D0040F004008BF80D0094
:10592000079880B10F9888B1C0F800B006EB0A0064
:1059300086B2CDF83CB0BE42FFF469AFB8F1000FBB
:1059400024D066681DE0CDF81CB0EFE7FEE7308993
:1059500040443081306898B9718970684246084483
:10596000169901F00FF804F10C039A1E414600F05D
:1059700035FB607B40F004006073708940447081A7
:105980003668002EE3D1208940442081BDF82800EC
:10599000A5F87200B9F1000F19D0BCB14946606892
:1059A000FDF77AFD2089B9F80810084420810B988A
:1059B00070B104F10C0301469A1EBDF8340000F0EA
:1059C0000DFB607B40F00400607301E0FEE78CB1EA
:1059D0000798206055F8680F38442860E888C01B95
:1059E000E88013982881A5F1680540B1A86F20B11F
:1059F00005E018E007986867ECE7686F90B1BBF1C5
:105A0000000F0DD0DBF8100050B11898800707D4B4
:105A10000820FCF7DBF9DBF810108A891043888135
:105A2000002041E6FEE795F82000B9F1000F40F0B4
:105A3000800085F8200002D04846FDF7A1FB0798BA
:105A400008B1FDF795FFB5F8700018B1A86F08B957
:105A5000686F10B14FF0FF3026E6FEE77CB50446D4
:105A60000025806DFCF7B6F9034600222946204642
:105A7000FFF7A6FC05001ED094F820006E6820F009
:105A8000030084F82000288900900623221D214667
:105A9000284600F0B6FE30820621607ACDE900018A
:105AA000A37A221D2146284601F0BFF82846FDF7BB
:105AB00067FB00207CBD6FF001007CBD2DE9FC413F
:105AC00004460D46486AFCF785F921698860688DAF
